:100000000C9434000C943E000C943E000C943E0082
:100010000C943E000C943E000C943E000C943E0068
:100020000C943E000C943E000C943E000C943E0058
:100030000C943E000C943E000C943E000C943E0048
:100040000C943E000C943E000C943E000C943E0038
:100050000C943E000C943E000C943E000C943E0028
:100060000C943E000C943E0011241FBECFEFD8E04C
:10007000DEBFCDBF0E94E8000C9424020C94000067
:10008000219A1AB8089582E8809380008CE18093C9
:100090008100E6E8F0E084E294EF91838083608160
:1000A000718180E090E00E9429012DEC3CEC4CEC49
:1000B0005DE30E948F010E94FA00709389006093B3
:1000C00088000895CF93DF934A9930C0209188002B
:1000D0003091890080918600909187002817390718
:1000E00048F08091860090918700909389008093DA
:1000F00088001AC06091860070918700C0918800C6
:10010000D091890080E090E00E9429012DEC3CEC28
:100110004CEC5DE30E948F010E94FA006C0F7D1F82
:1001200070938900609388004A9BFECFDF91CF9146
:100130000895CF93DF934C9948C0C0918800D09127
:100140008900609186007091870080E090E00E94B5
:1001500029012DEC3CEC4CEC5DE30E948F010E94E8
:10016000FA006C177D07A8F06091860070918700F7
:1001700080E090E00E9429012DEC3CEC4CEC5DE32A
:100180000E948F010E94FA0070938900609388009A
:100190001AC06091860070918700C0918800D0914C
:1001A000890080E090E00E9429012DEC3CEC4CECB1
:1001B0005DE30E948F010E94FA00C61BD70BD0930B
:1001C0008900C09388004C9BFECFDF91CF910895AA
:1001D0000E9440000E9443000E9462000E94990019
:1001E0002FEF89EF90E0215080409040E1F700C070
:1001F0000000F2CF0E946E0188F09F5798F0B92F4F
:100200009927B751B0F0E1F0660F771F881F991F4B
:100210001AF0BA95C9F714C0B13091F00E94880164
:10022000B1E008950C948801672F782F8827B85F74
:1002300039F0B93FCCF3869577956795B395D9F7A3
:100240003EF490958095709561957F4F8F4F9F4FAD
:100250000895E89409C097FB3EF4909580957095B9
:1002600061957F4F8F4F9F4F9923A9F0F92F96E902
:10027000BB279395F695879577956795B795F11177
:10028000F8CFFAF4BB0F11F460FF1BC06F5F7F4F14
:100290008F4F9F4F16C0882311F096E911C0772326
:1002A00021F09EE8872F762F05C0662371F096E82F
:1002B000862F70E060E02AF09A95660F771F881FFE
:1002C000DAF7880F9695879597F9089557FD905816
:1002D000440F551F59F05F3F71F04795880F97FB0A
:1002E000991F61F09F3F79F08795089512161306C4
:1002F0001406551FF2CF4695F1DF08C016161706F3
:100300001806991FF1CF8695710561050894089527
:10031000E894BB2766277727CB0197F908950E94B9
:10032000A2010C9413020E94050238F00E940C02F4
:1003300020F0952311F00C94FC010C94020211247E
:100340000C9489010E94660170F3959FC1F3950F8B
:1003500050E0551F629FF001729FBB27F00DB11D49
:10036000639FAA27F00DB11DAA1F649F6627B00DD9
:10037000A11D661F829F2227B00DA11D621F739FC2
:10038000B00DA11D621F839FA00D611D221F749FD0
:100390003327A00D611D231F849F600D211D822F17
:1003A000762F6A2F11249F5750409AF0F1F088233E
:1003B0004AF0EE0FFF1FBB1F661F771F881F91506B
:1003C0005040A9F79E3F510580F00C94FC010C941D
:1003D00089015F3FE4F3983ED4F38695779567955E
:1003E000B795F795E7959F5FC1F7FE2B880F911D95
:1003F0009695879597F9089597F99F6780E870E03B
:1004000060E008959FEF80EC089500240A9416168A
:10041000170618060906089500240A9412161306F2
:10042000140605060895092E0394000C11F4882380
:1004300052F0BB0F40F4BF2B11F460FF04C06F5F9C
:0C0440007F4F8F4F9F4F0895F894FFCF1F
:00000001FF
